{
  "address": "0x45d6f21a7eb2eD96200Dc645ce2c0081AaFc2fA5",
  "abi": [
    {
      "inputs": [
        {
          "internalType": "address",
          "name": "_usdc",
          "type": "address"
        }
      ],
      "stateMutability": "nonpayable",
      "type": "constructor"
    },
    {
      "anonymous": false,
      "inputs": [
        {
          "indexed": true,
          "internalType": "address",
          "name": "user",
          "type": "address"
        },
        {
          "indexed": true,
          "internalType": "address",
          "name": "token",
          "type": "address"
        },
        {
          "indexed": false,
          "internalType": "uint256",
          "name": "amountWithdrawn",
          "type": "uint256"
        },
        {
          "indexed": false,
          "internalType": "uint256",
          "name": "rewardAmount",
          "type": "uint256"
        },
        {
          "indexed": false,
          "internalType": "uint256",
          "name": "fee",
          "type": "uint256"
        },
        {
          "indexed": false,
          "internalType": "uint256",
          "name": "timestamp",
          "type": "uint256"
        },
        {
          "indexed": true,
          "internalType": "uint256",
          "name": "lockId",
          "type": "uint256"
        }
      ],
      "name": "FundsWithdrawn",
      "type": "event"
    },
    {
      "anonymous": false,
      "inputs": [
        {
          "indexed": true,
          "internalType": "address",
          "name": "user",
          "type": "address"
        },
        {
          "indexed": false,
          "internalType": "uint256",
          "name": "amount",
          "type": "uint256"
        }
      ],
      "name": "SafeLockRewardsClaimed",
      "type": "event"
    },
    {
      "anonymous": false,
      "inputs": [
        {
          "indexed": true,
          "internalType": "address",
          "name": "user",
          "type": "address"
        },
        {
          "indexed": true,
          "internalType": "address",
          "name": "token",
          "type": "address"
        },
        {
          "indexed": false,
          "internalType": "uint256",
          "name": "amount",
          "type": "uint256"
        },
        {
          "indexed": false,
          "internalType": "enum ThriveUtils.LockPeriod",
          "name": "lockPeriod",
          "type": "uint8"
        },
        {
          "indexed": false,
          "internalType": "uint256",
          "name": "timestamp",
          "type": "uint256"
        },
        {
          "indexed": true,
          "internalType": "uint256",
          "name": "lockId",
          "type": "uint256"
        }
      ],
      "name": "SaveLockCreated",
      "type": "event"
    },
    {
      "anonymous": false,
      "inputs": [
        {
          "indexed": true,
          "internalType": "uint256",
          "name": "savingsId",
          "type": "uint256"
        },
        {
          "indexed": false,
          "internalType": "uint256",
          "name": "totalAmount",
          "type": "uint256"
        },
        {
          "indexed": false,
          "internalType": "uint256",
          "name": "rewardAmount",
          "type": "uint256"
        }
      ],
      "name": "TargetSavingsCompleted",
      "type": "event"
    },
    {
      "anonymous": false,
      "inputs": [
        {
          "indexed": true,
          "internalType": "address",
          "name": "user",
          "type": "address"
        },
        {
          "indexed": false,
          "internalType": "string",
          "name": "purpose",
          "type": "string"
        },
        {
          "indexed": false,
          "internalType": "uint256",
          "name": "targetAmount",
          "type": "uint256"
        },
        {
          "indexed": true,
          "internalType": "uint256",
          "name": "startTime",
          "type": "uint256"
        },
        {
          "indexed": false,
          "internalType": "uint256",
          "name": "endTime",
          "type": "uint256"
        },
        {
          "indexed": true,
          "internalType": "uint256",
          "name": "savingsId",
          "type": "uint256"
        }
      ],
      "name": "TargetSavingsCreated",
      "type": "event"
    },
    {
      "anonymous": false,
      "inputs": [
        {
          "indexed": true,
          "internalType": "uint256",
          "name": "savingsId",
          "type": "uint256"
        },
        {
          "indexed": false,
          "internalType": "uint256",
          "name": "amountAdded",
          "type": "uint256"
        },
        {
          "indexed": false,
          "internalType": "uint256",
          "name": "newTotalAmount",
          "type": "uint256"
        }
      ],
      "name": "TargetSavingsUpdated",
      "type": "event"
    },
    {
      "inputs": [],
      "name": "AAVE_APY",
      "outputs": [
        {
          "internalType": "uint256",
          "name": "",
          "type": "uint256"
        }
      ],
      "stateMutability": "view",
      "type": "function"
    },
    {
      "inputs": [],
      "name": "DAYS_PER_YEAR",
      "outputs": [
        {
          "internalType": "uint256",
          "name": "",
          "type": "uint256"
        }
      ],
      "stateMutability": "view",
      "type": "function"
    },
    {
      "inputs": [],
      "name": "EARLY_WITHDRAWAL_FEE_PERCENTAGE",
      "outputs": [
        {
          "internalType": "uint256",
          "name": "",
          "type": "uint256"
        }
      ],
      "stateMutability": "view",
      "type": "function"
    },
    {
      "inputs": [],
      "name": "SCALE",
      "outputs": [
        {
          "internalType": "uint256",
          "name": "",
          "type": "uint256"
        }
      ],
      "stateMutability": "view",
      "type": "function"
    },
    {
      "inputs": [
        {
          "internalType": "uint256",
          "name": "_savingsId",
          "type": "uint256"
        },
        {
          "internalType": "uint256",
          "name": "_amount",
          "type": "uint256"
        }
      ],
      "name": "addToTargetSavings",
      "outputs": [],
      "stateMutability": "nonpayable",
      "type": "function"
    },
    {
      "inputs": [],
      "name": "claimSafeLockRewards",
      "outputs": [],
      "stateMutability": "nonpayable",
      "type": "function"
    },
    {
      "inputs": [
        {
          "internalType": "uint256",
          "name": "_savingsId",
          "type": "uint256"
        }
      ],
      "name": "completeTargetSavings",
      "outputs": [],
      "stateMutability": "nonpayable",
      "type": "function"
    },
    {
      "inputs": [
        {
          "internalType": "string",
          "name": "_purpose",
          "type": "string"
        },
        {
          "internalType": "uint256",
          "name": "_targetAmount",
          "type": "uint256"
        },
        {
          "internalType": "enum ThriveUtils.LockPeriod",
          "name": "_durationDays",
          "type": "uint8"
        }
      ],
      "name": "createTargetSavings",
      "outputs": [],
      "stateMutability": "nonpayable",
      "type": "function"
    },
    {
      "inputs": [],
      "name": "getAllActiveSaveLockIds",
      "outputs": [
        {
          "internalType": "uint256[]",
          "name": "",
          "type": "uint256[]"
        }
      ],
      "stateMutability": "view",
      "type": "function"
    },
    {
      "inputs": [],
      "name": "getAllInActiveSaveLockIds",
      "outputs": [
        {
          "internalType": "uint256[]",
          "name": "",
          "type": "uint256[]"
        }
      ],
      "stateMutability": "view",
      "type": "function"
    },
    {
      "inputs": [],
      "name": "getAllTargetSavingsIds",
      "outputs": [
        {
          "internalType": "uint256[]",
          "name": "",
          "type": "uint256[]"
        }
      ],
      "stateMutability": "view",
      "type": "function"
    },
    {
      "inputs": [
        {
          "internalType": "uint256",
          "name": "_lockId",
          "type": "uint256"
        }
      ],
      "name": "getSaveLockDetails",
      "outputs": [
        {
          "components": [
            {
              "internalType": "uint256",
              "name": "id",
              "type": "uint256"
            },
            {
              "internalType": "address",
              "name": "owner",
              "type": "address"
            },
            {
              "internalType": "uint256",
              "name": "amount",
              "type": "uint256"
            },
            {
              "internalType": "uint256",
              "name": "withdrawnAmount",
              "type": "uint256"
            },
            {
              "internalType": "string",
              "name": "title",
              "type": "string"
            },
            {
              "internalType": "uint256",
              "name": "lockDuration",
              "type": "uint256"
            },
            {
              "internalType": "uint256",
              "name": "startTime",
              "type": "uint256"
            },
            {
              "internalType": "address",
              "name": "lockToken",
              "type": "address"
            },
            {
              "internalType": "bool",
              "name": "withdrawn",
              "type": "bool"
            },
            {
              "internalType": "uint256",
              "name": "accumulatedRewards",
              "type": "uint256"
            }
          ],
          "internalType": "struct ThriveUtils.SaveLock",
          "name": "",
          "type": "tuple"
        }
      ],
      "stateMutability": "view",
      "type": "function"
    },
    {
      "inputs": [
        {
          "internalType": "uint256",
          "name": "_savingsId",
          "type": "uint256"
        }
      ],
      "name": "getTargetSavingsDetails",
      "outputs": [
        {
          "components": [
            {
              "internalType": "address",
              "name": "owner",
              "type": "address"
            },
            {
              "internalType": "string",
              "name": "purpose",
              "type": "string"
            },
            {
              "internalType": "uint256",
              "name": "targetAmount",
              "type": "uint256"
            },
            {
              "internalType": "uint256",
              "name": "currentAmount",
              "type": "uint256"
            },
            {
              "internalType": "uint256",
              "name": "startTime",
              "type": "uint256"
            },
            {
              "internalType": "uint256",
              "name": "endTime",
              "type": "uint256"
            },
            {
              "internalType": "bool",
              "name": "completed",
              "type": "bool"
            },
            {
              "internalType": "uint256",
              "name": "accumulatedRewards",
              "type": "uint256"
            },
            {
              "internalType": "uint256",
              "name": "lastDepositTime",
              "type": "uint256"
            }
          ],
          "internalType": "struct ThriveUtils.TargetSavings",
          "name": "",
          "type": "tuple"
        }
      ],
      "stateMutability": "view",
      "type": "function"
    },
    {
      "inputs": [
        {
          "internalType": "address",
          "name": "_user",
          "type": "address"
        }
      ],
      "name": "getUnclaimedSafeLockRewards",
      "outputs": [
        {
          "internalType": "uint256",
          "name": "",
          "type": "uint256"
        }
      ],
      "stateMutability": "view",
      "type": "function"
    },
    {
      "inputs": [
        {
          "internalType": "address",
          "name": "_user",
          "type": "address"
        }
      ],
      "name": "getUserActiveSaveLockIds",
      "outputs": [
        {
          "internalType": "uint256[]",
          "name": "",
          "type": "uint256[]"
        }
      ],
      "stateMutability": "view",
      "type": "function"
    },
    {
      "inputs": [
        {
          "internalType": "address",
          "name": "_user",
          "type": "address"
        }
      ],
      "name": "getUserActiveTargetSavingsIds",
      "outputs": [
        {
          "internalType": "uint256[]",
          "name": "",
          "type": "uint256[]"
        }
      ],
      "stateMutability": "view",
      "type": "function"
    },
    {
      "inputs": [
        {
          "internalType": "address",
          "name": "_user",
          "type": "address"
        }
      ],
      "name": "getUserInActiveSaveLockIds",
      "outputs": [
        {
          "internalType": "uint256[]",
          "name": "",
          "type": "uint256[]"
        }
      ],
      "stateMutability": "view",
      "type": "function"
    },
    {
      "inputs": [
        {
          "internalType": "address",
          "name": "_token",
          "type": "address"
        },
        {
          "internalType": "string",
          "name": "_title",
          "type": "string"
        },
        {
          "internalType": "uint256",
          "name": "_amount",
          "type": "uint256"
        },
        {
          "internalType": "enum ThriveUtils.LockPeriod",
          "name": "_lockPeriod",
          "type": "uint8"
        }
      ],
      "name": "saveLockFunds",
      "outputs": [],
      "stateMutability": "nonpayable",
      "type": "function"
    },
    {
      "inputs": [
        {
          "internalType": "uint256",
          "name": "",
          "type": "uint256"
        }
      ],
      "name": "saveLocks",
      "outputs": [
        {
          "internalType": "uint256",
          "name": "id",
          "type": "uint256"
        },
        {
          "internalType": "address",
          "name": "owner",
          "type": "address"
        },
        {
          "internalType": "uint256",
          "name": "amount",
          "type": "uint256"
        },
        {
          "internalType": "uint256",
          "name": "withdrawnAmount",
          "type": "uint256"
        },
        {
          "internalType": "string",
          "name": "title",
          "type": "string"
        },
        {
          "internalType": "uint256",
          "name": "lockDuration",
          "type": "uint256"
        },
        {
          "internalType": "uint256",
          "name": "startTime",
          "type": "uint256"
        },
        {
          "internalType": "address",
          "name": "lockToken",
          "type": "address"
        },
        {
          "internalType": "bool",
          "name": "withdrawn",
          "type": "bool"
        },
        {
          "internalType": "uint256",
          "name": "accumulatedRewards",
          "type": "uint256"
        }
      ],
      "stateMutability": "view",
      "type": "function"
    },
    {
      "inputs": [
        {
          "internalType": "uint256",
          "name": "",
          "type": "uint256"
        }
      ],
      "name": "targetSavings",
      "outputs": [
        {
          "internalType": "address",
          "name": "owner",
          "type": "address"
        },
        {
          "internalType": "string",
          "name": "purpose",
          "type": "string"
        },
        {
          "internalType": "uint256",
          "name": "targetAmount",
          "type": "uint256"
        },
        {
          "internalType": "uint256",
          "name": "currentAmount",
          "type": "uint256"
        },
        {
          "internalType": "uint256",
          "name": "startTime",
          "type": "uint256"
        },
        {
          "internalType": "uint256",
          "name": "endTime",
          "type": "uint256"
        },
        {
          "internalType": "bool",
          "name": "completed",
          "type": "bool"
        },
        {
          "internalType": "uint256",
          "name": "accumulatedRewards",
          "type": "uint256"
        },
        {
          "internalType": "uint256",
          "name": "lastDepositTime",
          "type": "uint256"
        }
      ],
      "stateMutability": "view",
      "type": "function"
    },
    {
      "inputs": [],
      "name": "usdc",
      "outputs": [
        {
          "internalType": "address",
          "name": "",
          "type": "address"
        }
      ],
      "stateMutability": "view",
      "type": "function"
    },
    {
      "inputs": [
        {
          "internalType": "address",
          "name": "",
          "type": "address"
        }
      ],
      "name": "userUSDRewards",
      "outputs": [
        {
          "internalType": "uint256",
          "name": "",
          "type": "uint256"
        }
      ],
      "stateMutability": "view",
      "type": "function"
    },
    {
      "inputs": [
        {
          "internalType": "uint256",
          "name": "_lockId",
          "type": "uint256"
        }
      ],
      "name": "withdrawLockedFunds",
      "outputs": [],
      "stateMutability": "nonpayable",
      "type": "function"
    }
  ],
  "transactionHash": "0x4eb2241db29ad0438aa398a918e79f73cdedf6232e10d48edc0b89d83e317792",
  "args": [
    "0x036CbD53842c5426634e7929541eC2318f3dCF7e"
  ],
  "numDeployments": 3,
  "solcInputHash": "a159cb034cf7aef17b9c5301c33a1529",
  "bytecode": "0x60a060405260016008556001600d553480156200001b57600080fd5b50604051620025c9380380620025c98339810160408190526200003e91620000b0565b60016000556001600160a01b0381166200009e5760405162461bcd60e51b815260206004820152601460248201527f496e76616c696420555344432061646472657373000000000000000000000000604482015260640160405180910390fd5b6001600160a01b0316608052620000e2565b600060208284031215620000c357600080fd5b81516001600160a01b0381168114620000db57600080fd5b9392505050565b60805161248c6200013d600039600081816101a8015281816105ba0152818161063601528181610739015281816107a5015281816108b101528181610b8401528181610edb01528181610f2801526110f1015261248c6000f3fe608060405234801561001057600080fd5b506004361061014d5760003560e01c8063b72f50ba116100c3578063e2683cb21161007c578063e2683cb214610303578063ead5232514610316578063eced55261461031e578063f1aa23871461032d578063f5fa268214610356578063fd66d1461461036957600080fd5b8063b72f50ba1461028c578063b806d84e146102ac578063c6846ef8146102bf578063cd28216e146102c8578063d2c2594e146102db578063df97fff5146102e357600080fd5b80634dc46734116101155780634dc46734146101ec5780634f29200c146101ff5780636fcfe43a146102155780637ae7637f1461023d5780637c7e09f114610266578063b10890b81461027957600080fd5b80632545a8ac14610152578063264292a21461017b578063307327231461019b5780633e413bee146101a357806341f5d08c146101e2575b600080fd5b610165610160366004611e06565b610372565b6040516101729190611e77565b60405180910390f35b61018e610189366004611f3e565b610509565b6040516101729190611f59565b61018e610533565b6101ca7f000000000000000000000000000000000000000000000000000000000000000081565b6040516001600160a01b039091168152602001610172565b6101ea610544565b005b6101ea6101fa36600461204f565b61062b565b61020760c881565b604051908152602001610172565b610228610223366004611e06565b610931565b604051610172999897969594939291906120b7565b61020761024b366004611f3e565b6001600160a01b03166000908152600e602052604090205490565b6101ea610274366004611e06565b610a11565b6101ea610287366004611e06565b610c37565b61020761029a366004611f3e565b600e6020526000908152604090205481565b61018e6102ba366004611f3e565b610f87565b61020761016d81565b6101ea6102d6366004612117565b610fab565b61018e6111de565b6102f66102f1366004611e06565b6111ea565b6040516101729190612139565b61018e610311366004611f3e565b611355565b61018e611379565b610207670de0b6b3a764000081565b61034061033b366004611e06565b611385565b6040516101729a999897969594939291906121cf565b6101ea610364366004612235565b611478565b6102076103e881565b6103dc6040518061014001604052806000815260200160006001600160a01b03168152602001600081526020016000815260200160608152602001600081526020016000815260200160006001600160a01b03168152602001600015158152602001600081525090565b60008281526001602081815260409283902083516101408101855281548152928101546001600160a01b0316918301919091526002810154928201929092526003820154606082015260048201805491929160808401919061043d9061228c565b80601f01602080910402602001604051908101604052809291908181526020018280546104699061228c565b80156104b65780601f1061048b576101008083540402835291602001916104b6565b820191906000526020600020905b81548152906001019060200180831161049957829003601f168201915b5050509183525050600582015460208201526006820154604082015260078201546001600160a01b0381166060830152600160a01b900460ff161515608082015260089091015460a09091015292915050565b6001600160a01b038116600090815260036020526040902060609061052d90611669565b92915050565b606061053f600b611669565b905090565b61054c61167d565b336000908152600e6020526040902054806105a45760405162461bcd60e51b81526020600482015260136024820152724e6f207265776172647320746f20636c61696d60681b60448201526064015b60405180910390fd5b336000818152600e60205260408120556105e9907f00000000000000000000000000000000000000000000000000000000000000006001600160a01b031690836116d7565b60405181815233907f15fd31649537a49605493d3236bc7a69d867fdf946fd995ca32decb813ea15659060200160405180910390a2506106296001600055565b565b61063361167d565b837f00000000000000000000000000000000000000000000000000000000000000006001600160a01b0316816001600160a01b0316146106a95760405162461bcd60e51b81526020600482015260116024820152702ab739bab83837b93a32b2103a37b5b2b760791b604482015260640161059b565b620f424083116107065760405162461bcd60e51b815260206004820152602260248201527f416d6f756e74206d7573742062652067726561746572207468616e2031205553604482015261444360f01b606482015260840161059b565b60006107118361173f565b600880549192506000919082610726836122dd565b9091555090506107616001600160a01b037f000000000000000000000000000000000000000000000000000000000000000016333088611830565b6040805161014081018252828152336020808301918252828401898152600060608501818152608086018d815260a087018a90524260c08801526001600160a01b037f0000000000000000000000000000000000000000000000000000000000000000811660e08901526101008801849052610120880184905289845260018087529890932087518155955197860180546001600160a01b031916989093169790971790915590516002840155516003830155925180519293919261082c9260048501920190611d6d565b5060a0820151600582015560c0820151600682015560e08201516007820180546101008501511515600160a01b026001600160a81b03199091166001600160a01b0390931692909217919091179055610120909101516008909101553360009081526002602052604090206108a19082611868565b506108ad600482611868565b50807f00000000000000000000000000000000000000000000000000000000000000006001600160a01b0316336001600160a01b03167fbeb49c3989de3f59c1e3fdf2cfbc0595322204cd090cc9063d29c0a51a76c9dc8888426040516109169392919061230e565b60405180910390a450505061092b6001600055565b50505050565b600960205260009081526040902080546001820180546001600160a01b03909216929161095d9061228c565b80601f01602080910402602001604051908101604052809291908181526020018280546109899061228c565b80156109d65780601f106109ab576101008083540402835291602001916109d6565b820191906000526020600020905b8154815290600101906020018083116109b957829003601f168201915b505050600284015460038501546004860154600587015460068801546007890154600890990154979894979396509194509260ff9091169189565b610a1961167d565b600081815260096020526040902080546001600160a01b03163314610a8f5760405162461bcd60e51b815260206004820152602660248201527f6f6e6c79206f776e65722063616e20636f6d706c6574652074617267657420736044820152656169766e677360d01b606482015260840161059b565b336000908152600a60205260409020610aa89083611874565b610aed5760405162461bcd60e51b8152602060048201526016602482015275536176696e677320646f73656e27742065786973747360501b604482015260640161059b565b60038101546007820154600683015460ff16158015610b0f5750826005015442105b15610b3e576000610b2e612710610b28856104b061188c565b90611898565b9050610b3a83826118a4565b9250505b6000610b52612710610b2884610bb861188c565b9050610b5e82826118a4565b8454909250610bab906001600160a01b0316610b7a85856118b0565b6001600160a01b037f00000000000000000000000000000000000000000000000000000000000000001691906116d7565b83546001600160a01b03166000908152600a60205260409020610bce90866118bc565b50610bda600b866118bc565b50847f4999d11e8192fc0e0b3c0aea8b3e23da4d3b62dcd9944075a1ce479dd3e4ee5785600301548660070154604051610c1e929190918252602082015260400190565b60405180910390a250505050610c346001600055565b50565b610c3f61167d565b336000908152600260205260409020610c589082611874565b610cb45760405162461bcd60e51b815260206004820152602760248201527f536176654c6f636b206e6f7420666f756e64206f72206e6f74206f776e656420604482015266313c903ab9b2b960c91b606482015260840161059b565b60008181526001602052604090206002810154610d135760405162461bcd60e51b815260206004820152601a60248201527f536176654c6f636b20616c72656164792077697468647261776e000000000000604482015260640161059b565b6000610d30826005015483600601546118b090919063ffffffff16565b9050600082600201549050600080610d69610d5e6064610b28603c896005015461188c90919063ffffffff16565b6006870154906118b0565b4211610dcb5760405162461bcd60e51b815260206004820152602b60248201527f43616e6e6f74207769746864726177206265666f726520363025206f66206c6f60448201526a31b590323ab930ba34b7b760a91b606482015260840161059b565b83421015610e0b57610df2612710610b286103e8886002015461188c90919063ffffffff16565b6002860154909250610e0490836118a4565b9250610e66565b6005850154600090610e209062015180611898565b9050610e308660020154826118c8565b336000908152600e6020526040902054909250610e4d90836118b0565b336000908152600e602052604090205550600885018190555b6003850183905560078501805460ff60a01b1916600160a01b179055336000908152600260205260409020610e9b90876118bc565b50610ea76004876118bc565b50336000908152600360205260409020610ec19087611868565b50610ecd600687611868565b50610f026001600160a01b037f00000000000000000000000000000000000000000000000000000000000000001633856116d7565b604080518481526020810183905290810183905242606082015286906001600160a01b037f0000000000000000000000000000000000000000000000000000000000000000169033907f0e0e9ed4e57df461866832664c482fa4aa524b2e378b03044993a565ff296c899060800160405180910390a45050505050610c346001600055565b6001600160a01b0381166000908152600a6020526040902060609061052d90611669565b610fb361167d565b336000908152600a60205260409020610fcc9083611874565b61102e5760405162461bcd60e51b815260206004820152602d60248201527f54617267657420736176696e6773206e6f7420666f756e64206f72206e6f742060448201526c37bbb732b210313c903ab9b2b960991b606482015260840161059b565b6000828152600960205260409020600681015460ff16156110915760405162461bcd60e51b815260206004820181905260248201527f54617267657420736176696e677320616c726561647920636f6d706c65746564604482015260640161059b565b806005015442106110e45760405162461bcd60e51b815260206004820152601860248201527f536176696e677320706572696f642068617320656e6465640000000000000000604482015260640161059b565b6111196001600160a01b037f000000000000000000000000000000000000000000000000000000000000000016333085611830565b6000816008015460001461113d5761113a8260030154836008015442611901565b90505b600782015461114c90826118b0565b6007830155600382015461116090846118b0565b600383018190554260088401556002830154116111875760068201805460ff191660011790555b837f80392777d6ef17b2e7ac58537936c32b1f3ef98b7f995cb4429ffbdb607103ad8484600301546040516111c6929190918252602082015260400190565b60405180910390a250506111da6001600055565b5050565b606061053f6006611669565b61124460405180610120016040528060006001600160a01b03168152602001606081526020016000815260200160008152602001600081526020016000815260200160001515815260200160008152602001600081525090565b6000828152600960209081526040918290208251610120810190935280546001600160a01b0316835260018101805491928401916112819061228c565b80601f01602080910402602001604051908101604052809291908181526020018280546112ad9061228c565b80156112fa5780601f106112cf576101008083540402835291602001916112fa565b820191906000526020600020905b8154815290600101906020018083116112dd57829003601f168201915b505050918352505060028201546020820152600382015460408201526004820154606082015260058201546080820152600682015460ff16151560a0820152600782015460c082015260089091015460e09091015292915050565b6001600160a01b038116600090815260026020526040902060609061052d90611669565b606061053f6004611669565b6001602081905260009182526040909120805491810154600282015460038301546004840180546001600160a01b039094169492939192916113c69061228c565b80601f01602080910402602001604051908101604052809291908181526020018280546113f29061228c565b801561143f5780601f106114145761010080835404028352916020019161143f565b820191906000526020600020905b81548152906001019060200180831161142257829003601f168201915b50505050600583015460068401546007850154600890950154939491939092506001600160a01b03821691600160a01b900460ff16908a565b600082116114d45760405162461bcd60e51b8152602060048201526024808201527f54617267657420616d6f756e74206d75737420626520677265617465722074686044820152630616e20360e41b606482015260840161059b565b60006114df8261173f565b600d805491925060009190826114f4836122dd565b90915550905042600061151461150d856201518061188c565b83906118b0565b604080516101208101825233815260208082018b81528284018b90526000606084018190526080840188905260a0840186905260c0840181905260e0840181905261010084018190528881526009835293909320825181546001600160a01b0319166001600160a01b0390911617815592518051949550919361159d9260018501920190611d6d565b506040828101516002830155606083015160038301556080830151600483015560a0830151600583015560c083015160068301805460ff191691151591909117905560e0830151600783015561010090920151600890910155336000908152600a6020522061160c9084611868565b50611618600b84611868565b508282336001600160a01b03167f738d392d25f3eb6f9cc29497d6e6465cb891dc67cd330f1305b3535447bbc2b58a8a8660405161165893929190612344565b60405180910390a450505050505050565b606060006116768361196d565b9392505050565b600260005414156116d05760405162461bcd60e51b815260206004820152601f60248201527f5265656e7472616e637947756172643a207265656e7472616e742063616c6c00604482015260640161059b565b6002600055565b6040516001600160a01b03831660248201526044810182905261173a90849063a9059cbb60e01b906064015b60408051601f198184030181529190526020810180516001600160e01b03166001600160e01b0319909316929092179091526119c9565b505050565b600080826004811115611754576117546122f8565b141561176257506078919050565b6001826004811115611776576117766122f8565b1415611784575060b4919050565b6002826004811115611798576117986122f8565b14156117a7575061012c919050565b60038260048111156117bb576117bb6122f8565b14156117ca57506101a4919050565b60048260048111156117de576117de6122f8565b14156117ed5750610258919050565b60405162461bcd60e51b8152602060048201526013602482015272125b9d985b1a59081b1bd8dac81c195c9a5bd9606a1b604482015260640161059b565b919050565b6040516001600160a01b038085166024830152831660448201526064810182905261092b9085906323b872dd60e01b90608401611703565b60006116768383611a9e565b60008181526001830160205260408120541515611676565b60006116768284612369565b60006116768284612388565b600061167682846123aa565b600061167682846123c1565b60006116768383611aed565b6000806118dc612710610b288660c861188c565b905060006118ec8261016d611898565b90506118f8818561188c565b95945050505050565b60008061190e83856118a4565b9050600061192b612710610b2860c8670de0b6b3a764000061188c565b9050600061193d826301e13380611898565b90506000611961670de0b6b3a7640000610b288661195b8c8761188c565b9061188c565b98975050505050505050565b6060816000018054806020026020016040519081016040528092919081815260200182805480156119bd57602002820191906000526020600020905b8154815260200190600101908083116119a9575b50505050509050919050565b6000611a1e826040518060400160405280602081526020017f5361666545524332303a206c6f772d6c6576656c2063616c6c206661696c6564815250856001600160a01b0316611be09092919063ffffffff16565b9050805160001480611a3f575080806020019051810190611a3f91906123d9565b61173a5760405162461bcd60e51b815260206004820152602a60248201527f5361666545524332303a204552433230206f7065726174696f6e20646964206e6044820152691bdd081cdd58d8d9595960b21b606482015260840161059b565b6000818152600183016020526040812054611ae55750815460018181018455600084815260208082209093018490558454848252828601909352604090209190915561052d565b50600061052d565b60008181526001830160205260408120548015611bd6576000611b116001836123aa565b8554909150600090611b25906001906123aa565b9050818114611b8a576000866000018281548110611b4557611b456123fb565b9060005260206000200154905080876000018481548110611b6857611b686123fb565b6000918252602080832090910192909255918252600188019052604090208390555b8554869080611b9b57611b9b612411565b60019003818190600052602060002001600090559055856001016000868152602001908152602001600020600090556001935050505061052d565b600091505061052d565b6060611bef8484600085611bf7565b949350505050565b606082471015611c585760405162461bcd60e51b815260206004820152602660248201527f416464726573733a20696e73756666696369656e742062616c616e636520666f6044820152651c8818d85b1b60d21b606482015260840161059b565b600080866001600160a01b03168587604051611c749190612427565b60006040518083038185875af1925050503d8060008114611cb1576040519150601f19603f3d011682016040523d82523d6000602084013e611cb6565b606091505b5091509150611cc787838387611cd2565b979650505050505050565b60608315611d3e578251611d37576001600160a01b0385163b611d375760405162461bcd60e51b815260206004820152601d60248201527f416464726573733a2063616c6c20746f206e6f6e2d636f6e7472616374000000604482015260640161059b565b5081611bef565b611bef8383815115611d535781518083602001fd5b8060405162461bcd60e51b815260040161059b9190612443565b828054611d799061228c565b90600052602060002090601f016020900481019282611d9b5760008555611de1565b82601f10611db457805160ff1916838001178555611de1565b82800160010185558215611de1579182015b82811115611de1578251825591602001919060010190611dc6565b50611ded929150611df1565b5090565b5b80821115611ded5760008155600101611df2565b600060208284031215611e1857600080fd5b5035919050565b60005b83811015611e3a578181015183820152602001611e22565b8381111561092b5750506000910152565b60008151808452611e63816020860160208601611e1f565b601f01601f19169290920160200192915050565b602081528151602082015260006020830151611e9e60408401826001600160a01b03169052565b50604083015160608301526060830151608083015260808301516101408060a0850152611ecf610160850183611e4b565b915060a085015160c085015260c085015160e085015260e0850151610100611f01818701836001600160a01b03169052565b8601519050610120611f168682018315159052565b959095015193019290925250919050565b80356001600160a01b038116811461182b57600080fd5b600060208284031215611f5057600080fd5b61167682611f27565b6020808252825182820181905260009190848201906040850190845b81811015611f9157835183529284019291840191600101611f75565b50909695505050505050565b634e487b7160e01b600052604160045260246000fd5b600082601f830112611fc457600080fd5b813567ffffffffffffffff80821115611fdf57611fdf611f9d565b604051601f8301601f19908116603f0116810190828211818310171561200757612007611f9d565b8160405283815286602085880101111561202057600080fd5b836020870160208301376000602085830101528094505050505092915050565b80356005811061182b57600080fd5b6000806000806080858703121561206557600080fd5b61206e85611f27565b9350602085013567ffffffffffffffff81111561208a57600080fd5b61209687828801611fb3565b935050604085013591506120ac60608601612040565b905092959194509250565b6001600160a01b038a168152610120602082018190526000906120dc8382018c611e4b565b604084019a909a5250506060810196909652608086019490945260a0850192909252151560c084015260e08301526101009091015292915050565b6000806040838503121561212a57600080fd5b50508035926020909101359150565b602081526121536020820183516001600160a01b03169052565b60006020830151610120806040850152612171610140850183611e4b565b91506040850151606085015260608501516080850152608085015160a085015260a085015160c085015260c08501516121ae60e086018215159052565b5060e085015161010085810191909152909401519390920192909252919050565b60006101408c835260018060a01b03808d1660208501528b60408501528a60608501528160808501526122048285018b611e4b565b60a085019990995260c084019790975250509290931660e08301521515610100820152610120015295945050505050565b60008060006060848603121561224a57600080fd5b833567ffffffffffffffff81111561226157600080fd5b61226d86828701611fb3565b9350506020840135915061228360408501612040565b90509250925092565b600181811c908216806122a057607f821691505b602082108114156122c157634e487b7160e01b600052602260045260246000fd5b50919050565b634e487b7160e01b600052601160045260246000fd5b60006000198214156122f1576122f16122c7565b5060010190565b634e487b7160e01b600052602160045260246000fd5b838152606081016005841061233357634e487b7160e01b600052602160045260246000fd5b602082019390935260400152919050565b6060815260006123576060830186611e4b565b60208301949094525060400152919050565b6000816000190483118215151615612383576123836122c7565b500290565b6000826123a557634e487b7160e01b600052601260045260246000fd5b500490565b6000828210156123bc576123bc6122c7565b500390565b600082198211156123d4576123d46122c7565b500190565b6000602082840312156123eb57600080fd5b8151801515811461167657600080fd5b634e487b7160e01b600052603260045260246000fd5b634e487b7160e01b600052603160045260246000fd5b60008251612439818460208701611e1f565b9190910192915050565b6020815260006116766020830184611e4b56fea264697066735822122088e6e321ccce15efee83201e105c8f871b949d291c33b283b69efa3420e5451264736f6c634300080a0033",
  "devdoc": {
    "kind": "dev",
    "methods": {
      "createTargetSavings(string,uint256,uint8)": {
        "details": "Creates a new target savings goal",
        "params": {
          "_durationDays": "The duration of the savings period in days",
          "_purpose": "The purpose of the savings goal",
          "_targetAmount": "The target amount to save"
        }
      },
      "saveLockFunds(address,string,uint256,uint8)": {
        "details": "Creates a new save lock for the user",
        "params": {
          "_amount": "The amount of USDC to lock",
          "_lockPeriod": "The duration of the lock"
        }
      },
      "withdrawLockedFunds(uint256)": {
        "details": "Allows user to withdraw funds from a save lock",
        "params": {
          "_lockId": "The ID of the save lock to withdraw from"
        }
      }
    },
    "version": 1
  },
  "userdoc": {
    "kind": "user",
    "methods": {},
    "version": 1
  },
  "storageLayout": {
    "storage": [
      {
        "astId": 10,
        "contract": "contracts/Thrive.sol:Thrive",
        "label": "_status",
        "offset": 0,
        "slot": "0",
        "type": "t_uint256"
      },
      {
        "astId": 1875,
        "contract": "contracts/Thrive.sol:Thrive",
        "label": "saveLocks",
        "offset": 0,
        "slot": "1",
        "type": "t_mapping(t_uint256,t_struct(SaveLock)2937_storage)"
      },
      {
        "astId": 1880,
        "contract": "contracts/Thrive.sol:Thrive",
        "label": "userActiveSaveLocks",
        "offset": 0,
        "slot": "2",
        "type": "t_mapping(t_address,t_struct(UintSet)1704_storage)"
      },
      {
        "astId": 1885,
        "contract": "contracts/Thrive.sol:Thrive",
        "label": "userInActiveSaveLocks",
        "offset": 0,
        "slot": "3",
        "type": "t_mapping(t_address,t_struct(UintSet)1704_storage)"
      },
      {
        "astId": 1888,
        "contract": "contracts/Thrive.sol:Thrive",
        "label": "allActiveSaveLocks",
        "offset": 0,
        "slot": "4",
        "type": "t_struct(UintSet)1704_storage"
      },
      {
        "astId": 1891,
        "contract": "contracts/Thrive.sol:Thrive",
        "label": "allInActiveSaveLocks",
        "offset": 0,
        "slot": "6",
        "type": "t_struct(UintSet)1704_storage"
      },
      {
        "astId": 1894,
        "contract": "contracts/Thrive.sol:Thrive",
        "label": "nextSaveLockId",
        "offset": 0,
        "slot": "8",
        "type": "t_uint256"
      },
      {
        "astId": 1899,
        "contract": "contracts/Thrive.sol:Thrive",
        "label": "targetSavings",
        "offset": 0,
        "slot": "9",
        "type": "t_mapping(t_uint256,t_struct(TargetSavings)2956_storage)"
      },
      {
        "astId": 1904,
        "contract": "contracts/Thrive.sol:Thrive",
        "label": "userTargetSavings",
        "offset": 0,
        "slot": "10",
        "type": "t_mapping(t_address,t_struct(UintSet)1704_storage)"
      },
      {
        "astId": 1907,
        "contract": "contracts/Thrive.sol:Thrive",
        "label": "allTargetSavings",
        "offset": 0,
        "slot": "11",
        "type": "t_struct(UintSet)1704_storage"
      },
      {
        "astId": 1910,
        "contract": "contracts/Thrive.sol:Thrive",
        "label": "nextTargetSavingsId",
        "offset": 0,
        "slot": "13",
        "type": "t_uint256"
      },
      {
        "astId": 1914,
        "contract": "contracts/Thrive.sol:Thrive",
        "label": "userUSDRewards",
        "offset": 0,
        "slot": "14",
        "type": "t_mapping(t_address,t_uint256)"
      }
    ],
    "types": {
      "t_address": {
        "encoding": "inplace",
        "label": "address",
        "numberOfBytes": "20"
      },
      "t_array(t_bytes32)dyn_storage": {
        "base": "t_bytes32",
        "encoding": "dynamic_array",
        "label": "bytes32[]",
        "numberOfBytes": "32"
      },
      "t_bool": {
        "encoding": "inplace",
        "label": "bool",
        "numberOfBytes": "1"
      },
      "t_bytes32": {
        "encoding": "inplace",
        "label": "bytes32",
        "numberOfBytes": "32"
      },
      "t_mapping(t_address,t_struct(UintSet)1704_storage)": {
        "encoding": "mapping",
        "key": "t_address",
        "label": "mapping(address => struct EnumerableSet.UintSet)",
        "numberOfBytes": "32",
        "value": "t_struct(UintSet)1704_storage"
      },
      "t_mapping(t_address,t_uint256)": {
        "encoding": "mapping",
        "key": "t_address",
        "label": "mapping(address => uint256)",
        "numberOfBytes": "32",
        "value": "t_uint256"
      },
      "t_mapping(t_bytes32,t_uint256)": {
        "encoding": "mapping",
        "key": "t_bytes32",
        "label": "mapping(bytes32 => uint256)",
        "numberOfBytes": "32",
        "value": "t_uint256"
      },
      "t_mapping(t_uint256,t_struct(SaveLock)2937_storage)": {
        "encoding": "mapping",
        "key": "t_uint256",
        "label": "mapping(uint256 => struct ThriveUtils.SaveLock)",
        "numberOfBytes": "32",
        "value": "t_struct(SaveLock)2937_storage"
      },
      "t_mapping(t_uint256,t_struct(TargetSavings)2956_storage)": {
        "encoding": "mapping",
        "key": "t_uint256",
        "label": "mapping(uint256 => struct ThriveUtils.TargetSavings)",
        "numberOfBytes": "32",
        "value": "t_struct(TargetSavings)2956_storage"
      },
      "t_string_storage": {
        "encoding": "bytes",
        "label": "string",
        "numberOfBytes": "32"
      },
      "t_struct(SaveLock)2937_storage": {
        "encoding": "inplace",
        "label": "struct ThriveUtils.SaveLock",
        "members": [
          {
            "astId": 2918,
            "contract": "contracts/Thrive.sol:Thrive",
            "label": "id",
            "offset": 0,
            "slot": "0",
            "type": "t_uint256"
          },
          {
            "astId": 2920,
            "contract": "contracts/Thrive.sol:Thrive",
            "label": "owner",
            "offset": 0,
            "slot": "1",
            "type": "t_address"
          },
          {
            "astId": 2922,
            "contract": "contracts/Thrive.sol:Thrive",
            "label": "amount",
            "offset": 0,
            "slot": "2",
            "type": "t_uint256"
          },
          {
            "astId": 2924,
            "contract": "contracts/Thrive.sol:Thrive",
            "label": "withdrawnAmount",
            "offset": 0,
            "slot": "3",
            "type": "t_uint256"
          },
          {
            "astId": 2926,
            "contract": "contracts/Thrive.sol:Thrive",
            "label": "title",
            "offset": 0,
            "slot": "4",
            "type": "t_string_storage"
          },
          {
            "astId": 2928,
            "contract": "contracts/Thrive.sol:Thrive",
            "label": "lockDuration",
            "offset": 0,
            "slot": "5",
            "type": "t_uint256"
          },
          {
            "astId": 2930,
            "contract": "contracts/Thrive.sol:Thrive",
            "label": "startTime",
            "offset": 0,
            "slot": "6",
            "type": "t_uint256"
          },
          {
            "astId": 2932,
            "contract": "contracts/Thrive.sol:Thrive",
            "label": "lockToken",
            "offset": 0,
            "slot": "7",
            "type": "t_address"
          },
          {
            "astId": 2934,
            "contract": "contracts/Thrive.sol:Thrive",
            "label": "withdrawn",
            "offset": 20,
            "slot": "7",
            "type": "t_bool"
          },
          {
            "astId": 2936,
            "contract": "contracts/Thrive.sol:Thrive",
            "label": "accumulatedRewards",
            "offset": 0,
            "slot": "8",
            "type": "t_uint256"
          }
        ],
        "numberOfBytes": "288"
      },
      "t_struct(Set)1232_storage": {
        "encoding": "inplace",
        "label": "struct EnumerableSet.Set",
        "members": [
          {
            "astId": 1227,
            "contract": "contracts/Thrive.sol:Thrive",
            "label": "_values",
            "offset": 0,
            "slot": "0",
            "type": "t_array(t_bytes32)dyn_storage"
          },
          {
            "astId": 1231,
            "contract": "contracts/Thrive.sol:Thrive",
            "label": "_indexes",
            "offset": 0,
            "slot": "1",
            "type": "t_mapping(t_bytes32,t_uint256)"
          }
        ],
        "numberOfBytes": "64"
      },
      "t_struct(TargetSavings)2956_storage": {
        "encoding": "inplace",
        "label": "struct ThriveUtils.TargetSavings",
        "members": [
          {
            "astId": 2939,
            "contract": "contracts/Thrive.sol:Thrive",
            "label": "owner",
            "offset": 0,
            "slot": "0",
            "type": "t_address"
          },
          {
            "astId": 2941,
            "contract": "contracts/Thrive.sol:Thrive",
            "label": "purpose",
            "offset": 0,
            "slot": "1",
            "type": "t_string_storage"
          },
          {
            "astId": 2943,
            "contract": "contracts/Thrive.sol:Thrive",
            "label": "targetAmount",
            "offset": 0,
            "slot": "2",
            "type": "t_uint256"
          },
          {
            "astId": 2945,
            "contract": "contracts/Thrive.sol:Thrive",
            "label": "currentAmount",
            "offset": 0,
            "slot": "3",
            "type": "t_uint256"
          },
          {
            "astId": 2947,
            "contract": "contracts/Thrive.sol:Thrive",
            "label": "startTime",
            "offset": 0,
            "slot": "4",
            "type": "t_uint256"
          },
          {
            "astId": 2949,
            "contract": "contracts/Thrive.sol:Thrive",
            "label": "endTime",
            "offset": 0,
            "slot": "5",
            "type": "t_uint256"
          },
          {
            "astId": 2951,
            "contract": "contracts/Thrive.sol:Thrive",
            "label": "completed",
            "offset": 0,
            "slot": "6",
            "type": "t_bool"
          },
          {
            "astId": 2953,
            "contract": "contracts/Thrive.sol:Thrive",
            "label": "accumulatedRewards",
            "offset": 0,
            "slot": "7",
            "type": "t_uint256"
          },
          {
            "astId": 2955,
            "contract": "contracts/Thrive.sol:Thrive",
            "label": "lastDepositTime",
            "offset": 0,
            "slot": "8",
            "type": "t_uint256"
          }
        ],
        "numberOfBytes": "288"
      },
      "t_struct(UintSet)1704_storage": {
        "encoding": "inplace",
        "label": "struct EnumerableSet.UintSet",
        "members": [
          {
            "astId": 1703,
            "contract": "contracts/Thrive.sol:Thrive",
            "label": "_inner",
            "offset": 0,
            "slot": "0",
            "type": "t_struct(Set)1232_storage"
          }
        ],
        "numberOfBytes": "64"
      },
      "t_uint256": {
        "encoding": "inplace",
        "label": "uint256",
        "numberOfBytes": "32"
      }
    }
  }
}