{
  "address": "0xB8Bb47cA67A81985e8789ac1D9abad4703Ea6332",
  "abi": [
    {
      "inputs": [
        {
          "internalType": "address",
          "name": "_usdc",
          "type": "address"
        }
      ],
      "stateMutability": "nonpayable",
      "type": "constructor"
    },
    {
      "anonymous": false,
      "inputs": [
        {
          "indexed": true,
          "internalType": "address",
          "name": "user",
          "type": "address"
        },
        {
          "indexed": true,
          "internalType": "address",
          "name": "token",
          "type": "address"
        },
        {
          "indexed": false,
          "internalType": "uint256",
          "name": "amountWithdrawn",
          "type": "uint256"
        },
        {
          "indexed": false,
          "internalType": "uint256",
          "name": "rewardAmount",
          "type": "uint256"
        },
        {
          "indexed": false,
          "internalType": "uint256",
          "name": "fee",
          "type": "uint256"
        },
        {
          "indexed": false,
          "internalType": "uint256",
          "name": "timestamp",
          "type": "uint256"
        },
        {
          "indexed": true,
          "internalType": "uint256",
          "name": "lockId",
          "type": "uint256"
        }
      ],
      "name": "FundsWithdrawn",
      "type": "event"
    },
    {
      "anonymous": false,
      "inputs": [
        {
          "indexed": true,
          "internalType": "address",
          "name": "user",
          "type": "address"
        },
        {
          "indexed": true,
          "internalType": "address",
          "name": "token",
          "type": "address"
        },
        {
          "indexed": false,
          "internalType": "uint256",
          "name": "amount",
          "type": "uint256"
        },
        {
          "indexed": false,
          "internalType": "enum ThriveUtils.LockPeriod",
          "name": "lockPeriod",
          "type": "uint8"
        },
        {
          "indexed": false,
          "internalType": "uint256",
          "name": "timestamp",
          "type": "uint256"
        },
        {
          "indexed": true,
          "internalType": "uint256",
          "name": "lockId",
          "type": "uint256"
        }
      ],
      "name": "SaveLockCreated",
      "type": "event"
    },
    {
      "anonymous": false,
      "inputs": [
        {
          "indexed": true,
          "internalType": "uint256",
          "name": "savingsId",
          "type": "uint256"
        },
        {
          "indexed": false,
          "internalType": "uint256",
          "name": "totalAmount",
          "type": "uint256"
        },
        {
          "indexed": false,
          "internalType": "uint256",
          "name": "rewardAmount",
          "type": "uint256"
        }
      ],
      "name": "TargetSavingsCompleted",
      "type": "event"
    },
    {
      "anonymous": false,
      "inputs": [
        {
          "indexed": true,
          "internalType": "address",
          "name": "user",
          "type": "address"
        },
        {
          "indexed": false,
          "internalType": "string",
          "name": "purpose",
          "type": "string"
        },
        {
          "indexed": false,
          "internalType": "uint256",
          "name": "targetAmount",
          "type": "uint256"
        },
        {
          "indexed": false,
          "internalType": "uint256",
          "name": "startTime",
          "type": "uint256"
        },
        {
          "indexed": false,
          "internalType": "uint256",
          "name": "endTime",
          "type": "uint256"
        },
        {
          "indexed": true,
          "internalType": "uint256",
          "name": "savingsId",
          "type": "uint256"
        }
      ],
      "name": "TargetSavingsCreated",
      "type": "event"
    },
    {
      "anonymous": false,
      "inputs": [
        {
          "indexed": true,
          "internalType": "uint256",
          "name": "savingsId",
          "type": "uint256"
        },
        {
          "indexed": false,
          "internalType": "uint256",
          "name": "amountAdded",
          "type": "uint256"
        },
        {
          "indexed": false,
          "internalType": "uint256",
          "name": "newTotalAmount",
          "type": "uint256"
        }
      ],
      "name": "TargetSavingsUpdated",
      "type": "event"
    },
    {
      "inputs": [],
      "name": "AAVE_APY",
      "outputs": [
        {
          "internalType": "uint256",
          "name": "",
          "type": "uint256"
        }
      ],
      "stateMutability": "view",
      "type": "function"
    },
    {
      "inputs": [],
      "name": "DAYS_PER_YEAR",
      "outputs": [
        {
          "internalType": "uint256",
          "name": "",
          "type": "uint256"
        }
      ],
      "stateMutability": "view",
      "type": "function"
    },
    {
      "inputs": [],
      "name": "EARLY_WITHDRAWAL_FEE_PERCENTAGE",
      "outputs": [
        {
          "internalType": "uint256",
          "name": "",
          "type": "uint256"
        }
      ],
      "stateMutability": "view",
      "type": "function"
    },
    {
      "inputs": [],
      "name": "SCALE",
      "outputs": [
        {
          "internalType": "uint256",
          "name": "",
          "type": "uint256"
        }
      ],
      "stateMutability": "view",
      "type": "function"
    },
    {
      "inputs": [
        {
          "internalType": "uint256",
          "name": "_savingsId",
          "type": "uint256"
        },
        {
          "internalType": "uint256",
          "name": "_amount",
          "type": "uint256"
        }
      ],
      "name": "addToTargetSavings",
      "outputs": [],
      "stateMutability": "nonpayable",
      "type": "function"
    },
    {
      "inputs": [
        {
          "internalType": "uint256",
          "name": "_savingsId",
          "type": "uint256"
        }
      ],
      "name": "completeTargetSavings",
      "outputs": [],
      "stateMutability": "nonpayable",
      "type": "function"
    },
    {
      "inputs": [
        {
          "internalType": "string",
          "name": "_purpose",
          "type": "string"
        },
        {
          "internalType": "uint256",
          "name": "_targetAmount",
          "type": "uint256"
        },
        {
          "internalType": "enum ThriveUtils.LockPeriod",
          "name": "_durationDays",
          "type": "uint8"
        }
      ],
      "name": "createTargetSavings",
      "outputs": [],
      "stateMutability": "nonpayable",
      "type": "function"
    },
    {
      "inputs": [],
      "name": "getAllActiveSaveLockIds",
      "outputs": [
        {
          "internalType": "uint256[]",
          "name": "",
          "type": "uint256[]"
        }
      ],
      "stateMutability": "view",
      "type": "function"
    },
    {
      "inputs": [],
      "name": "getAllInActiveSaveLockIds",
      "outputs": [
        {
          "internalType": "uint256[]",
          "name": "",
          "type": "uint256[]"
        }
      ],
      "stateMutability": "view",
      "type": "function"
    },
    {
      "inputs": [],
      "name": "getAllTargetSavingsIds",
      "outputs": [
        {
          "internalType": "uint256[]",
          "name": "",
          "type": "uint256[]"
        }
      ],
      "stateMutability": "view",
      "type": "function"
    },
    {
      "inputs": [
        {
          "internalType": "uint256",
          "name": "_lockId",
          "type": "uint256"
        }
      ],
      "name": "getSaveLockDetails",
      "outputs": [
        {
          "components": [
            {
              "internalType": "address",
              "name": "owner",
              "type": "address"
            },
            {
              "internalType": "uint256",
              "name": "amount",
              "type": "uint256"
            },
            {
              "internalType": "string",
              "name": "title",
              "type": "string"
            },
            {
              "internalType": "uint256",
              "name": "lockDuration",
              "type": "uint256"
            },
            {
              "internalType": "uint256",
              "name": "startTime",
              "type": "uint256"
            },
            {
              "internalType": "address",
              "name": "lockToken",
              "type": "address"
            }
          ],
          "internalType": "struct ThriveUtils.SaveLock",
          "name": "",
          "type": "tuple"
        }
      ],
      "stateMutability": "view",
      "type": "function"
    },
    {
      "inputs": [
        {
          "internalType": "uint256",
          "name": "_savingsId",
          "type": "uint256"
        }
      ],
      "name": "getTargetSavingsDetails",
      "outputs": [
        {
          "components": [
            {
              "internalType": "address",
              "name": "owner",
              "type": "address"
            },
            {
              "internalType": "string",
              "name": "purpose",
              "type": "string"
            },
            {
              "internalType": "uint256",
              "name": "targetAmount",
              "type": "uint256"
            },
            {
              "internalType": "uint256",
              "name": "currentAmount",
              "type": "uint256"
            },
            {
              "internalType": "uint256",
              "name": "startTime",
              "type": "uint256"
            },
            {
              "internalType": "uint256",
              "name": "endTime",
              "type": "uint256"
            },
            {
              "internalType": "bool",
              "name": "completed",
              "type": "bool"
            },
            {
              "internalType": "uint256",
              "name": "accumulatedRewards",
              "type": "uint256"
            },
            {
              "internalType": "uint256",
              "name": "lastDepositTime",
              "type": "uint256"
            }
          ],
          "internalType": "struct ThriveUtils.TargetSavings",
          "name": "",
          "type": "tuple"
        }
      ],
      "stateMutability": "view",
      "type": "function"
    },
    {
      "inputs": [
        {
          "internalType": "address",
          "name": "_user",
          "type": "address"
        }
      ],
      "name": "getUserActiveSaveLockIds",
      "outputs": [
        {
          "internalType": "uint256[]",
          "name": "",
          "type": "uint256[]"
        }
      ],
      "stateMutability": "view",
      "type": "function"
    },
    {
      "inputs": [
        {
          "internalType": "address",
          "name": "_user",
          "type": "address"
        }
      ],
      "name": "getUserActiveTargetSavingsIds",
      "outputs": [
        {
          "internalType": "uint256[]",
          "name": "",
          "type": "uint256[]"
        }
      ],
      "stateMutability": "view",
      "type": "function"
    },
    {
      "inputs": [
        {
          "internalType": "address",
          "name": "_user",
          "type": "address"
        }
      ],
      "name": "getUserInActiveSaveLockIds",
      "outputs": [
        {
          "internalType": "uint256[]",
          "name": "",
          "type": "uint256[]"
        }
      ],
      "stateMutability": "view",
      "type": "function"
    },
    {
      "inputs": [
        {
          "internalType": "address",
          "name": "_token",
          "type": "address"
        },
        {
          "internalType": "string",
          "name": "_title",
          "type": "string"
        },
        {
          "internalType": "uint256",
          "name": "_amount",
          "type": "uint256"
        },
        {
          "internalType": "enum ThriveUtils.LockPeriod",
          "name": "_lockPeriod",
          "type": "uint8"
        }
      ],
      "name": "saveLockFunds",
      "outputs": [],
      "stateMutability": "nonpayable",
      "type": "function"
    },
    {
      "inputs": [
        {
          "internalType": "uint256",
          "name": "",
          "type": "uint256"
        }
      ],
      "name": "saveLocks",
      "outputs": [
        {
          "internalType": "address",
          "name": "owner",
          "type": "address"
        },
        {
          "internalType": "uint256",
          "name": "amount",
          "type": "uint256"
        },
        {
          "internalType": "string",
          "name": "title",
          "type": "string"
        },
        {
          "internalType": "uint256",
          "name": "lockDuration",
          "type": "uint256"
        },
        {
          "internalType": "uint256",
          "name": "startTime",
          "type": "uint256"
        },
        {
          "internalType": "address",
          "name": "lockToken",
          "type": "address"
        }
      ],
      "stateMutability": "view",
      "type": "function"
    },
    {
      "inputs": [
        {
          "internalType": "uint256",
          "name": "",
          "type": "uint256"
        }
      ],
      "name": "targetSavings",
      "outputs": [
        {
          "internalType": "address",
          "name": "owner",
          "type": "address"
        },
        {
          "internalType": "string",
          "name": "purpose",
          "type": "string"
        },
        {
          "internalType": "uint256",
          "name": "targetAmount",
          "type": "uint256"
        },
        {
          "internalType": "uint256",
          "name": "currentAmount",
          "type": "uint256"
        },
        {
          "internalType": "uint256",
          "name": "startTime",
          "type": "uint256"
        },
        {
          "internalType": "uint256",
          "name": "endTime",
          "type": "uint256"
        },
        {
          "internalType": "bool",
          "name": "completed",
          "type": "bool"
        },
        {
          "internalType": "uint256",
          "name": "accumulatedRewards",
          "type": "uint256"
        },
        {
          "internalType": "uint256",
          "name": "lastDepositTime",
          "type": "uint256"
        }
      ],
      "stateMutability": "view",
      "type": "function"
    },
    {
      "inputs": [],
      "name": "usdc",
      "outputs": [
        {
          "internalType": "address",
          "name": "",
          "type": "address"
        }
      ],
      "stateMutability": "view",
      "type": "function"
    },
    {
      "inputs": [
        {
          "internalType": "uint256",
          "name": "_lockId",
          "type": "uint256"
        }
      ],
      "name": "withdrawLockedFunds",
      "outputs": [],
      "stateMutability": "nonpayable",
      "type": "function"
    }
  ],
  "transactionHash": "0x944880000d0d13553fef63aa97bf894d90dcbc6347479a2505c8db316dc49f47",
  "args": [
    "0x036CbD53842c5426634e7929541eC2318f3dCF7e"
  ],
  "numDeployments": 2,
  "solcInputHash": "2f1279c37ffde364e60f6f7579ab69a5",
  "bytecode": "0x60a060405260016008556001600d553480156200001b57600080fd5b50604051620023ad380380620023ad8339810160408190526200003e91620000b0565b60016000556001600160a01b0381166200009e5760405162461bcd60e51b815260206004820152601460248201527f496e76616c696420555344432061646472657373000000000000000000000000604482015260640160405180910390fd5b6001600160a01b0316608052620000e2565b600060208284031215620000c357600080fd5b81516001600160a01b0381168114620000db57600080fd5b9392505050565b6080516122776200013660003960008181610187015281816104860152818161058e015281816105e8015281816106b70152818161098a01528181610cbf01528181610d580152610f2101526122776000f3fe608060405234801561001057600080fd5b506004361061012c5760003560e01c8063c6846ef8116100ad578063ead5232511610071578063ead52325146102a4578063eced5526146102ac578063f1aa2387146102bb578063f5fa2682146102e0578063fd66d146146102f357600080fd5b8063c6846ef81461024d578063cd28216e14610256578063d2c2594e14610269578063df97fff514610271578063e2683cb21461029157600080fd5b80634f29200c116100f45780634f29200c146101d65780636fcfe43a146101ec5780637c7e09f114610214578063b10890b814610227578063b806d84e1461023a57600080fd5b80632545a8ac14610131578063264292a21461015a578063307327231461017a5780633e413bee146101825780634dc46734146101c1575b600080fd5b61014461013f366004611c4f565b6102fc565b6040516101519190611cc0565b60405180910390f35b61016d610168366004611d3d565b610440565b6040516101519190611d58565b61016d61046a565b6101a97f000000000000000000000000000000000000000000000000000000000000000081565b6040516001600160a01b039091168152602001610151565b6101d46101cf366004611e4e565b61047b565b005b6101de60c881565b604051908152602001610151565b6101ff6101fa366004611c4f565b610737565b60405161015199989796959493929190611eb6565b6101d4610222366004611c4f565b610817565b6101d4610235366004611c4f565b610aa1565b61016d610248366004611d3d565b610db7565b6101de61016d81565b6101d4610264366004611f16565b610ddb565b61016d61100e565b61028461027f366004611c4f565b61101a565b6040516101519190611f38565b61016d61029f366004611d3d565b611185565b61016d6111a9565b6101de670de0b6b3a764000081565b6102ce6102c9366004611c4f565b6111b5565b60405161015196959493929190611fce565b6101d46102ee366004612016565b61128a565b6101de6103e881565b6103476040518060c0016040528060006001600160a01b031681526020016000815260200160608152602001600081526020016000815260200160006001600160a01b031681525090565b600082815260016020818152604092839020835160c08101855281546001600160a01b03168152928101549183019190915260028101805492939192918401916103909061206d565b80601f01602080910402602001604051908101604052809291908181526020018280546103bc9061206d565b80156104095780601f106103de57610100808354040283529160200191610409565b820191906000526020600020905b8154815290600101906020018083116103ec57829003601f168201915b505050918352505060038201546020820152600482015460408201526005909101546001600160a01b031660609091015292915050565b6001600160a01b03811660009081526003602052604090206060906104649061147c565b92915050565b6060610476600b61147c565b905090565b610483611490565b837f00000000000000000000000000000000000000000000000000000000000000006001600160a01b0316816001600160a01b0316146104fe5760405162461bcd60e51b81526020600482015260116024820152702ab739bab83837b93a32b2103a37b5b2b760791b60448201526064015b60405180910390fd5b620f4240831161055b5760405162461bcd60e51b815260206004820152602260248201527f416d6f756e74206d7573742062652067726561746572207468616e2031205553604482015261444360f01b60648201526084016104f5565b6000610566836114ea565b60088054919250600091908261057b836120be565b9091555090506105b66001600160a01b037f0000000000000000000000000000000000000000000000000000000000000000163330886115db565b6040805160c08101825233815260208082018881528284018a8152606084018790524260808501526001600160a01b037f0000000000000000000000000000000000000000000000000000000000000000811660a086015260008781526001808652969020855181546001600160a01b0319169216919091178155915194820194909455925180519293926106519260028501920190611b80565b50606082015160038201556080820151600482015560a090910151600590910180546001600160a01b0319166001600160a01b039092169190911790553360009081526002602052604090206106a79082611646565b506106b3600482611646565b50807f00000000000000000000000000000000000000000000000000000000000000006001600160a01b0316336001600160a01b03167fbeb49c3989de3f59c1e3fdf2cfbc0595322204cd090cc9063d29c0a51a76c9dc88884260405161071c939291906120ef565b60405180910390a45050506107316001600055565b50505050565b600960205260009081526040902080546001820180546001600160a01b0390921692916107639061206d565b80601f016020809104026020016040519081016040528092919081815260200182805461078f9061206d565b80156107dc5780601f106107b1576101008083540402835291602001916107dc565b820191906000526020600020905b8154815290600101906020018083116107bf57829003601f168201915b505050600284015460038501546004860154600587015460068801546007890154600890990154979894979396509194509260ff9091169189565b61081f611490565b600081815260096020526040902080546001600160a01b031633146108955760405162461bcd60e51b815260206004820152602660248201527f6f6e6c79206f776e65722063616e20636f6d706c6574652074617267657420736044820152656169766e677360d01b60648201526084016104f5565b336000908152600a602052604090206108ae9083611652565b6108f35760405162461bcd60e51b8152602060048201526016602482015275536176696e677320646f73656e27742065786973747360501b60448201526064016104f5565b60038101546007820154600683015460ff161580156109155750826005015442105b1561094457600061093461271061092e856104b061166a565b90611676565b90506109408382611682565b9250505b600061095861271061092e84610bb861166a565b90506109648282611682565b84549092506109b1906001600160a01b0316610980858561168e565b6001600160a01b037f000000000000000000000000000000000000000000000000000000000000000016919061169a565b83546001600160a01b03166000908152600a602052604090206109d490866116cf565b506109e0600b866116cf565b50600085815260096020526040812080546001600160a01b031916815590610a0b6001830182611c04565b506000600282018190556003808301829055600483018290556005830182905560068301805460ff1916905560078084018390556008909301919091558501549085015460405187927f4999d11e8192fc0e0b3c0aea8b3e23da4d3b62dcd9944075a1ce479dd3e4ee5792610a8892918252602082015260400190565b60405180910390a250505050610a9e6001600055565b50565b610aa9611490565b336000908152600260205260409020610ac29082611652565b610b1e5760405162461bcd60e51b815260206004820152602760248201527f536176654c6f636b206e6f7420666f756e64206f72206e6f74206f776e656420604482015266313c903ab9b2b960c91b60648201526084016104f5565b600081815260016020819052604090912090810154610b7f5760405162461bcd60e51b815260206004820152601a60248201527f536176654c6f636b20616c72656164792077697468647261776e00000000000060448201526064016104f5565b6000610b9c8260030154836004015461168e90919063ffffffff16565b9050600082600101549050600080610bd5610bca606461092e603c896003015461166a90919063ffffffff16565b60048701549061168e565b4211610c375760405162461bcd60e51b815260206004820152602b60248201527f43616e6e6f74207769746864726177206265666f726520363025206f66206c6f60448201526a31b590323ab930ba34b7b760a91b60648201526084016104f5565b83421015610c7757610c5e61271061092e6103e8886001015461166a90919063ffffffff16565b6001860154909250610c709083611682565b9250610cb2565b6003850154600090610c8c9062015180611676565b9050610c9c8660010154826116db565b6001870154909250610cae908361168e565b9350505b610ce66001600160a01b037f000000000000000000000000000000000000000000000000000000000000000016338561169a565b336000908152600260205260409020610cff90876116cf565b50610d0b6004876116cf565b50336000908152600360205260409020610d259087611646565b50610d31600687611646565b50604080518481526020810183905290810183905242606082015286906001600160a01b037f0000000000000000000000000000000000000000000000000000000000000000169033907f0e0e9ed4e57df461866832664c482fa4aa524b2e378b03044993a565ff296c899060800160405180910390a45050505050610a9e6001600055565b6001600160a01b0381166000908152600a602052604090206060906104649061147c565b610de3611490565b336000908152600a60205260409020610dfc9083611652565b610e5e5760405162461bcd60e51b815260206004820152602d60248201527f54617267657420736176696e6773206e6f7420666f756e64206f72206e6f742060448201526c37bbb732b210313c903ab9b2b960991b60648201526084016104f5565b6000828152600960205260409020600681015460ff1615610ec15760405162461bcd60e51b815260206004820181905260248201527f54617267657420736176696e677320616c726561647920636f6d706c6574656460448201526064016104f5565b80600501544210610f145760405162461bcd60e51b815260206004820152601860248201527f536176696e677320706572696f642068617320656e646564000000000000000060448201526064016104f5565b610f496001600160a01b037f0000000000000000000000000000000000000000000000000000000000000000163330856115db565b60008160080154600014610f6d57610f6a8260030154836008015442611714565b90505b6007820154610f7c908261168e565b60078301556003820154610f90908461168e565b60038301819055426008840155600283015411610fb75760068201805460ff191660011790555b837f80392777d6ef17b2e7ac58537936c32b1f3ef98b7f995cb4429ffbdb607103ad848460030154604051610ff6929190918252602082015260400190565b60405180910390a2505061100a6001600055565b5050565b6060610476600661147c565b61107460405180610120016040528060006001600160a01b03168152602001606081526020016000815260200160008152602001600081526020016000815260200160001515815260200160008152602001600081525090565b6000828152600960209081526040918290208251610120810190935280546001600160a01b0316835260018101805491928401916110b19061206d565b80601f01602080910402602001604051908101604052809291908181526020018280546110dd9061206d565b801561112a5780601f106110ff5761010080835404028352916020019161112a565b820191906000526020600020905b81548152906001019060200180831161110d57829003601f168201915b505050918352505060028201546020820152600382015460408201526004820154606082015260058201546080820152600682015460ff16151560a0820152600782015460c082015260089091015460e09091015292915050565b6001600160a01b03811660009081526002602052604090206060906104649061147c565b6060610476600461147c565b60016020819052600091825260409091208054918101546002820180546001600160a01b03909416939192916111ea9061206d565b80601f01602080910402602001604051908101604052809291908181526020018280546112169061206d565b80156112635780601f1061123857610100808354040283529160200191611263565b820191906000526020600020905b81548152906001019060200180831161124657829003601f168201915b5050505060038301546004840154600590940154929390929091506001600160a01b031686565b600082116112e65760405162461bcd60e51b8152602060048201526024808201527f54617267657420616d6f756e74206d75737420626520677265617465722074686044820152630616e20360e41b60648201526084016104f5565b60006112f1826114ea565b600d80549192506000919082611306836120be565b90915550905042600061132661131f856201518061166a565b839061168e565b604080516101208101825233815260208082018b81528284018b90526000606084018190526080840188905260a0840186905260c0840181905260e0840181905261010084018190528881526009835293909320825181546001600160a01b0319166001600160a01b039091161781559251805194955091936113af9260018501920190611b80565b506040828101516002830155606083015160038301556080830151600483015560a0830151600583015560c083015160068301805460ff191691151591909117905560e0830151600783015561010090920151600890910155336000908152600a6020522061141e9084611646565b5061142a600b84611646565b5082336001600160a01b03167f738d392d25f3eb6f9cc29497d6e6465cb891dc67cd330f1305b3535447bbc2b58989868660405161146b9493929190612125565b60405180910390a350505050505050565b6060600061148983611780565b9392505050565b600260005414156114e35760405162461bcd60e51b815260206004820152601f60248201527f5265656e7472616e637947756172643a207265656e7472616e742063616c6c0060448201526064016104f5565b6002600055565b6000808260048111156114ff576114ff6120d9565b141561150d57506078919050565b6001826004811115611521576115216120d9565b141561152f575060b4919050565b6002826004811115611543576115436120d9565b1415611552575061012c919050565b6003826004811115611566576115666120d9565b141561157557506101a4919050565b6004826004811115611589576115896120d9565b14156115985750610258919050565b60405162461bcd60e51b8152602060048201526013602482015272125b9d985b1a59081b1bd8dac81c195c9a5bd9606a1b60448201526064016104f5565b919050565b6040516001600160a01b03808516602483015283166044820152606481018290526107319085906323b872dd60e01b906084015b60408051601f198184030181529190526020810180516001600160e01b03166001600160e01b0319909316929092179091526117dc565b600061148983836118b1565b60008181526001830160205260408120541515611489565b60006114898284612154565b60006114898284612173565b60006114898284612195565b600061148982846121ac565b6040516001600160a01b0383166024820152604481018290526116ca90849063a9059cbb60e01b9060640161160f565b505050565b60006114898383611900565b6000806116ef61271061092e8660c861166a565b905060006116ff8261016d611676565b905061170b818561166a565b95945050505050565b6000806117218385611682565b9050600061173e61271061092e60c8670de0b6b3a764000061166a565b90506000611750826301e13380611676565b90506000611774670de0b6b3a764000061092e8661176e8c8761166a565b9061166a565b98975050505050505050565b6060816000018054806020026020016040519081016040528092919081815260200182805480156117d057602002820191906000526020600020905b8154815260200190600101908083116117bc575b50505050509050919050565b6000611831826040518060400160405280602081526020017f5361666545524332303a206c6f772d6c6576656c2063616c6c206661696c6564815250856001600160a01b03166119f39092919063ffffffff16565b905080516000148061185257508080602001905181019061185291906121c4565b6116ca5760405162461bcd60e51b815260206004820152602a60248201527f5361666545524332303a204552433230206f7065726174696f6e20646964206e6044820152691bdd081cdd58d8d9595960b21b60648201526084016104f5565b60008181526001830160205260408120546118f857508154600181810184556000848152602080822090930184905584548482528286019093526040902091909155610464565b506000610464565b600081815260018301602052604081205480156119e9576000611924600183612195565b855490915060009061193890600190612195565b905081811461199d576000866000018281548110611958576119586121e6565b906000526020600020015490508087600001848154811061197b5761197b6121e6565b6000918252602080832090910192909255918252600188019052604090208390555b85548690806119ae576119ae6121fc565b600190038181906000526020600020016000905590558560010160008681526020019081526020016000206000905560019350505050610464565b6000915050610464565b6060611a028484600085611a0a565b949350505050565b606082471015611a6b5760405162461bcd60e51b815260206004820152602660248201527f416464726573733a20696e73756666696369656e742062616c616e636520666f6044820152651c8818d85b1b60d21b60648201526084016104f5565b600080866001600160a01b03168587604051611a879190612212565b60006040518083038185875af1925050503d8060008114611ac4576040519150601f19603f3d011682016040523d82523d6000602084013e611ac9565b606091505b5091509150611ada87838387611ae5565b979650505050505050565b60608315611b51578251611b4a576001600160a01b0385163b611b4a5760405162461bcd60e51b815260206004820152601d60248201527f416464726573733a2063616c6c20746f206e6f6e2d636f6e747261637400000060448201526064016104f5565b5081611a02565b611a028383815115611b665781518083602001fd5b8060405162461bcd60e51b81526004016104f5919061222e565b828054611b8c9061206d565b90600052602060002090601f016020900481019282611bae5760008555611bf4565b82601f10611bc757805160ff1916838001178555611bf4565b82800160010185558215611bf4579182015b82811115611bf4578251825591602001919060010190611bd9565b50611c00929150611c3a565b5090565b508054611c109061206d565b6000825580601f10611c20575050565b601f016020900490600052602060002090810190610a9e91905b5b80821115611c005760008155600101611c3b565b600060208284031215611c6157600080fd5b5035919050565b60005b83811015611c83578181015183820152602001611c6b565b838111156107315750506000910152565b60008151808452611cac816020860160208601611c68565b601f01601f19169290920160200192915050565b60208152600060018060a01b0380845116602084015260208401516040840152604084015160c06060850152611cf960e0850182611c94565b905060608501516080850152608085015160a08501528160a08601511660c0850152809250505092915050565b80356001600160a01b03811681146115d657600080fd5b600060208284031215611d4f57600080fd5b61148982611d26565b6020808252825182820181905260009190848201906040850190845b81811015611d9057835183529284019291840191600101611d74565b50909695505050505050565b634e487b7160e01b600052604160045260246000fd5b600082601f830112611dc357600080fd5b813567ffffffffffffffff80821115611dde57611dde611d9c565b604051601f8301601f19908116603f01168101908282118183101715611e0657611e06611d9c565b81604052838152866020858801011115611e1f57600080fd5b836020870160208301376000602085830101528094505050505092915050565b8035600581106115d657600080fd5b60008060008060808587031215611e6457600080fd5b611e6d85611d26565b9350602085013567ffffffffffffffff811115611e8957600080fd5b611e9587828801611db2565b93505060408501359150611eab60608601611e3f565b905092959194509250565b6001600160a01b038a16815261012060208201819052600090611edb8382018c611c94565b604084019a909a5250506060810196909652608086019490945260a0850192909252151560c084015260e08301526101009091015292915050565b60008060408385031215611f2957600080fd5b50508035926020909101359150565b60208152611f526020820183516001600160a01b03169052565b60006020830151610120806040850152611f70610140850183611c94565b91506040850151606085015260608501516080850152608085015160a085015260a085015160c085015260c0850151611fad60e086018215159052565b5060e085015161010085810191909152909401519390920192909252919050565b600060018060a01b03808916835287602084015260c06040840152611ff660c0840188611c94565b6060840196909652608083019490945250911660a0909101529392505050565b60008060006060848603121561202b57600080fd5b833567ffffffffffffffff81111561204257600080fd5b61204e86828701611db2565b9350506020840135915061206460408501611e3f565b90509250925092565b600181811c9082168061208157607f821691505b602082108114156120a257634e487b7160e01b600052602260045260246000fd5b50919050565b634e487b7160e01b600052601160045260246000fd5b60006000198214156120d2576120d26120a8565b5060010190565b634e487b7160e01b600052602160045260246000fd5b838152606081016005841061211457634e487b7160e01b600052602160045260246000fd5b602082019390935260400152919050565b6080815260006121386080830187611c94565b6020830195909552506040810192909252606090910152919050565b600081600019048311821515161561216e5761216e6120a8565b500290565b60008261219057634e487b7160e01b600052601260045260246000fd5b500490565b6000828210156121a7576121a76120a8565b500390565b600082198211156121bf576121bf6120a8565b500190565b6000602082840312156121d657600080fd5b8151801515811461148957600080fd5b634e487b7160e01b600052603260045260246000fd5b634e487b7160e01b600052603160045260246000fd5b60008251612224818460208701611c68565b9190910192915050565b6020815260006114896020830184611c9456fea264697066735822122018e291184df86867c604c7823cc97418b52b759b6e2a068a858ac9d8b6ae3a4364736f6c634300080a0033",
  "devdoc": {
    "kind": "dev",
    "methods": {
      "createTargetSavings(string,uint256,uint8)": {
        "details": "Creates a new target savings goal",
        "params": {
          "_durationDays": "The duration of the savings period in days",
          "_purpose": "The purpose of the savings goal",
          "_targetAmount": "The target amount to save"
        }
      },
      "saveLockFunds(address,string,uint256,uint8)": {
        "details": "Creates a new save lock for the user",
        "params": {
          "_amount": "The amount of USDC to lock",
          "_lockPeriod": "The duration of the lock"
        }
      },
      "withdrawLockedFunds(uint256)": {
        "details": "Allows user to withdraw funds from a save lock",
        "params": {
          "_lockId": "The ID of the save lock to withdraw from"
        }
      }
    },
    "version": 1
  },
  "userdoc": {
    "kind": "user",
    "methods": {},
    "version": 1
  },
  "storageLayout": {
    "storage": [
      {
        "astId": 10,
        "contract": "contracts/Thrive.sol:Thrive",
        "label": "_status",
        "offset": 0,
        "slot": "0",
        "type": "t_uint256"
      },
      {
        "astId": 1875,
        "contract": "contracts/Thrive.sol:Thrive",
        "label": "saveLocks",
        "offset": 0,
        "slot": "1",
        "type": "t_mapping(t_uint256,t_struct(SaveLock)2843_storage)"
      },
      {
        "astId": 1880,
        "contract": "contracts/Thrive.sol:Thrive",
        "label": "userActiveSaveLocks",
        "offset": 0,
        "slot": "2",
        "type": "t_mapping(t_address,t_struct(UintSet)1704_storage)"
      },
      {
        "astId": 1885,
        "contract": "contracts/Thrive.sol:Thrive",
        "label": "userInActiveSaveLocks",
        "offset": 0,
        "slot": "3",
        "type": "t_mapping(t_address,t_struct(UintSet)1704_storage)"
      },
      {
        "astId": 1888,
        "contract": "contracts/Thrive.sol:Thrive",
        "label": "allActiveSaveLocks",
        "offset": 0,
        "slot": "4",
        "type": "t_struct(UintSet)1704_storage"
      },
      {
        "astId": 1891,
        "contract": "contracts/Thrive.sol:Thrive",
        "label": "allInActiveSaveLocks",
        "offset": 0,
        "slot": "6",
        "type": "t_struct(UintSet)1704_storage"
      },
      {
        "astId": 1894,
        "contract": "contracts/Thrive.sol:Thrive",
        "label": "nextSaveLockId",
        "offset": 0,
        "slot": "8",
        "type": "t_uint256"
      },
      {
        "astId": 1899,
        "contract": "contracts/Thrive.sol:Thrive",
        "label": "targetSavings",
        "offset": 0,
        "slot": "9",
        "type": "t_mapping(t_uint256,t_struct(TargetSavings)2862_storage)"
      },
      {
        "astId": 1904,
        "contract": "contracts/Thrive.sol:Thrive",
        "label": "userTargetSavings",
        "offset": 0,
        "slot": "10",
        "type": "t_mapping(t_address,t_struct(UintSet)1704_storage)"
      },
      {
        "astId": 1907,
        "contract": "contracts/Thrive.sol:Thrive",
        "label": "allTargetSavings",
        "offset": 0,
        "slot": "11",
        "type": "t_struct(UintSet)1704_storage"
      },
      {
        "astId": 1910,
        "contract": "contracts/Thrive.sol:Thrive",
        "label": "nextTargetSavingsId",
        "offset": 0,
        "slot": "13",
        "type": "t_uint256"
      }
    ],
    "types": {
      "t_address": {
        "encoding": "inplace",
        "label": "address",
        "numberOfBytes": "20"
      },
      "t_array(t_bytes32)dyn_storage": {
        "base": "t_bytes32",
        "encoding": "dynamic_array",
        "label": "bytes32[]",
        "numberOfBytes": "32"
      },
      "t_bool": {
        "encoding": "inplace",
        "label": "bool",
        "numberOfBytes": "1"
      },
      "t_bytes32": {
        "encoding": "inplace",
        "label": "bytes32",
        "numberOfBytes": "32"
      },
      "t_mapping(t_address,t_struct(UintSet)1704_storage)": {
        "encoding": "mapping",
        "key": "t_address",
        "label": "mapping(address => struct EnumerableSet.UintSet)",
        "numberOfBytes": "32",
        "value": "t_struct(UintSet)1704_storage"
      },
      "t_mapping(t_bytes32,t_uint256)": {
        "encoding": "mapping",
        "key": "t_bytes32",
        "label": "mapping(bytes32 => uint256)",
        "numberOfBytes": "32",
        "value": "t_uint256"
      },
      "t_mapping(t_uint256,t_struct(SaveLock)2843_storage)": {
        "encoding": "mapping",
        "key": "t_uint256",
        "label": "mapping(uint256 => struct ThriveUtils.SaveLock)",
        "numberOfBytes": "32",
        "value": "t_struct(SaveLock)2843_storage"
      },
      "t_mapping(t_uint256,t_struct(TargetSavings)2862_storage)": {
        "encoding": "mapping",
        "key": "t_uint256",
        "label": "mapping(uint256 => struct ThriveUtils.TargetSavings)",
        "numberOfBytes": "32",
        "value": "t_struct(TargetSavings)2862_storage"
      },
      "t_string_storage": {
        "encoding": "bytes",
        "label": "string",
        "numberOfBytes": "32"
      },
      "t_struct(SaveLock)2843_storage": {
        "encoding": "inplace",
        "label": "struct ThriveUtils.SaveLock",
        "members": [
          {
            "astId": 2832,
            "contract": "contracts/Thrive.sol:Thrive",
            "label": "owner",
            "offset": 0,
            "slot": "0",
            "type": "t_address"
          },
          {
            "astId": 2834,
            "contract": "contracts/Thrive.sol:Thrive",
            "label": "amount",
            "offset": 0,
            "slot": "1",
            "type": "t_uint256"
          },
          {
            "astId": 2836,
            "contract": "contracts/Thrive.sol:Thrive",
            "label": "title",
            "offset": 0,
            "slot": "2",
            "type": "t_string_storage"
          },
          {
            "astId": 2838,
            "contract": "contracts/Thrive.sol:Thrive",
            "label": "lockDuration",
            "offset": 0,
            "slot": "3",
            "type": "t_uint256"
          },
          {
            "astId": 2840,
            "contract": "contracts/Thrive.sol:Thrive",
            "label": "startTime",
            "offset": 0,
            "slot": "4",
            "type": "t_uint256"
          },
          {
            "astId": 2842,
            "contract": "contracts/Thrive.sol:Thrive",
            "label": "lockToken",
            "offset": 0,
            "slot": "5",
            "type": "t_address"
          }
        ],
        "numberOfBytes": "192"
      },
      "t_struct(Set)1232_storage": {
        "encoding": "inplace",
        "label": "struct EnumerableSet.Set",
        "members": [
          {
            "astId": 1227,
            "contract": "contracts/Thrive.sol:Thrive",
            "label": "_values",
            "offset": 0,
            "slot": "0",
            "type": "t_array(t_bytes32)dyn_storage"
          },
          {
            "astId": 1231,
            "contract": "contracts/Thrive.sol:Thrive",
            "label": "_indexes",
            "offset": 0,
            "slot": "1",
            "type": "t_mapping(t_bytes32,t_uint256)"
          }
        ],
        "numberOfBytes": "64"
      },
      "t_struct(TargetSavings)2862_storage": {
        "encoding": "inplace",
        "label": "struct ThriveUtils.TargetSavings",
        "members": [
          {
            "astId": 2845,
            "contract": "contracts/Thrive.sol:Thrive",
            "label": "owner",
            "offset": 0,
            "slot": "0",
            "type": "t_address"
          },
          {
            "astId": 2847,
            "contract": "contracts/Thrive.sol:Thrive",
            "label": "purpose",
            "offset": 0,
            "slot": "1",
            "type": "t_string_storage"
          },
          {
            "astId": 2849,
            "contract": "contracts/Thrive.sol:Thrive",
            "label": "targetAmount",
            "offset": 0,
            "slot": "2",
            "type": "t_uint256"
          },
          {
            "astId": 2851,
            "contract": "contracts/Thrive.sol:Thrive",
            "label": "currentAmount",
            "offset": 0,
            "slot": "3",
            "type": "t_uint256"
          },
          {
            "astId": 2853,
            "contract": "contracts/Thrive.sol:Thrive",
            "label": "startTime",
            "offset": 0,
            "slot": "4",
            "type": "t_uint256"
          },
          {
            "astId": 2855,
            "contract": "contracts/Thrive.sol:Thrive",
            "label": "endTime",
            "offset": 0,
            "slot": "5",
            "type": "t_uint256"
          },
          {
            "astId": 2857,
            "contract": "contracts/Thrive.sol:Thrive",
            "label": "completed",
            "offset": 0,
            "slot": "6",
            "type": "t_bool"
          },
          {
            "astId": 2859,
            "contract": "contracts/Thrive.sol:Thrive",
            "label": "accumulatedRewards",
            "offset": 0,
            "slot": "7",
            "type": "t_uint256"
          },
          {
            "astId": 2861,
            "contract": "contracts/Thrive.sol:Thrive",
            "label": "lastDepositTime",
            "offset": 0,
            "slot": "8",
            "type": "t_uint256"
          }
        ],
        "numberOfBytes": "288"
      },
      "t_struct(UintSet)1704_storage": {
        "encoding": "inplace",
        "label": "struct EnumerableSet.UintSet",
        "members": [
          {
            "astId": 1703,
            "contract": "contracts/Thrive.sol:Thrive",
            "label": "_inner",
            "offset": 0,
            "slot": "0",
            "type": "t_struct(Set)1232_storage"
          }
        ],
        "numberOfBytes": "64"
      },
      "t_uint256": {
        "encoding": "inplace",
        "label": "uint256",
        "numberOfBytes": "32"
      }
    }
  }
}